:020000041000EA
:1000000000B5324B212058609868022188439860DF
:10001000D860186158612E4B002199600221596106
:100020000121F02299502B49196001219960352056
:1000300000F044F80222904214D00621196600F024
:1000400034F8196E01211966002018661A6600F04E
:100050002CF8196E196E196E052000F02FF8012189
:100060000842F9D1002199601B49196000215960AB
:100070001A491B48016001219960EB211966A021F2
:10008000196600F012F800219960164914480160C1
:100090000121996001BC002800D000471248134993
:1000A000086003C880F30888084703B5996A0420EC
:1000B0000142FBD001200142F8D103BD02B5186610
:1000C0001866FFF7F2FF186E186E02BD00000240BE
:1000D000000000180000070000035F00212200005C
:1000E000F4000018222000A00001001008ED00E03C
:1000F00000000000000000000000000074B24E7A12
:1001000000200420F7010010C3010010C5010010F9
:10011000C1010010C1010010C1010010C101001097
:10012000C1010010C1010010C1010010C701001081
:10013000C1010010C1010010C9010010CB01001065
:10014000CD010010CD010010CD010010CD01001037
:10015000CD010010CD010010CD010010CD01001027
:10016000CD010010CD010010CD010010CD01001017
:10017000CD010010CD010010CD010010CD01001007
:10018000CD010010CD010010CD010010CD010010F7
:10019000CD010010CD010010CD010010CD010010E7
:1001A000CD010010CD010010CD010010CD010010D7
:1001B000CD010010CD010010CD010010CD010010C7
:1001C00000BE00BE00BE00BE00BE00BEEFF3058054
:1001D000103800BEF2EB88714455001060550010D5
:1001E0003402001090A31AE700201F49086006C8D7
:1001F00081F3088810471D48006800282FD10DA4FE
:100200000ECC002902D000F012F8F9E71849194A7B
:10021000002000E001C19142FCD1174988471749ED
:1002200088471749884700BEFDE701C901C29A42C5
:10023000FBD3704760550010C000002080020020F2
:100240002057001000000420000004202057001058
:10025000001004200010042000000000704709482E
:1002600001F0A2FB0047000008ED00E0000000D014
:1002700080020020340A02200918001071030010C7
:10028000FD1800105756000006005250ABB36053E3
:10029000B854001006005250861C0302C8540010C7
:1002A000060052505422A29DD8540010050052500E
:1002B000DE65F46820570010F8B5C0460448054BC9
:1002C00010B5834203D0044B002B00D0984710BDDB
:1002D000800200208002002000000000064807493C
:1002E000091A8B10C90FC91810B5491003D0044B57
:1002F000002B00D0984710BD800200208002002013
:100300000000000010B5074C2378002B09D1FFF73F
:10031000D5FF054B002B02D0044800E000BF0123AD
:10032000237010BDE80500200000000020540010DC
:10033000054B10B5002B03D00449054800E000BF71
:10034000FFF7CCFF10BDC04600000000EC05002008
:100350002054001070B5D024012601252406FA206F
:10036000656104F017FCFA20A66104F013FCF6E7BF
:1003700000B5002083B000F015F8D022012312064A
:100380005362002205490192009380320023044801
:1003900004F0FCF904F008FA03B000BD205400108A
:1003A000550300100123D02283401206936293610B
:1003B000094A40219446830063441A68C0004A40B9
:1003C000803111408022520113431960034B9C4637
:1003D000052360444360704704C001400040014071
:1003E000024B18688007C00F7047C04600C0064027
:1003F00070B5EFF3108C72B60D4D2B68002BFCD04E
:10040000BFF35F8F0724CB08C618C05C01230C40E4
:10041000A3401C000440034207D118433070BFF3CF
:100420005F8F2C608CF3108870BD100001F06AFAA9
:100430002C0100D00021044B044ABFF35F8F02C39C
:100440009342FAD17047C046000100D0800100D02D
:10045000044A1078431CDBB2172B00D91023137009
:100460007047C046B801002010B5034B01001800CA
:10047000024AFFF7BDFF10BD140600202C540010E7
:1004800001238340002904D0034A1360034A136008
:100490007047034A1360FBE780E200E000E100E000
:1004A00080E100E001228240034B1B6813405A1E8A
:1004B0009341D8B27047C04600E100E0024B1030D3
:1004C0009B688000C058704700ED00E070B50D00DB
:1004D000EFF3108672B60F4A1368002BFCD0BFF3FF
:1004E0005F8F0D4B10309B6884001B590B4A934261
:1004F00003D09D4201D001F023FA074B9B681D51A8
:10050000BFF35F8FBFF35F8F0022024B1A6086F349
:10051000108870BD240100D000ED00E0CD01001076
:10052000F0B5DE4657464E464546E0B50C0083B072
:10053000EFF3108872B65D4A1368002BFCD0BFF34E
:100540005F8F5B4B5B499A68030010339F00D5595E
:100550008D4239D0A5424AD0574EAA1B2F2A33D8F4
:1005600001229246824091464846544A1268104001
:1005700001904846524A1060BFF35F8FEFF3058247
:100580009346002A35D0934201D001F0D9F92A00D0
:1005900053469A439068844208D175E04B005B183B
:1005A0009B00F3189868A04234D01A0006215156D7
:1005B0000029F3DA844253D0019B002B26D04A460F
:1005C000404B1A603D4B1A60394B9B68DD51BFF3BD
:1005D0005F8FBFF35F8F0022344B1A6088F310885F
:1005E00003B0F0BCBB46B246A946A046F0BD0D0024
:1005F000EAE72A0053469A4390688442D6D10620FF
:1006000010561300002809DA0D0031E04A462C4B41
:100610001A60D9E706201856002822DB420011187C
:10062000890074188A46A1689960E179D971062118
:1006300061569971002925DBA488F11A64052415F7
:1006400054440919E0240905490D240221439980E5
:1006500013181D4A9B001178F31899711070ABE7BD
:1006600013005946002914D1FF3191711749918027
:1006700015490A789A71164A9B1B5B415A43120D21
:100680000A7099E71349E2E7062010561300002884
:10069000C4DA114A1149D21A083A5002400D0143F6
:1006A00099800F4952080A43DA8085E7240100D077
:1006B00000ED00E0CD010010BC01002000E100E0F1
:1006C00080E100E080E200E0310A022001BDFFFF8E
:1006D000AAAA000001BD0000F601002000F0FFFF03
:1006E00000F8FFFF032310B50400074A18409446A2
:1006F000C0009C43FC3383406444226881409A4399
:1007000013000B43236010BD00E400E070B5EFF36D
:10071000058101240443EFF3108C72B6214A13685B
:10072000002BFCD0BFF35F8F1F4B05001F4AED1A53
:100730006D416A43120D1E4D8900AE6852B2765863
:10074000A6421CD00621595691421CD0122159565E
:10075000914222D01E215956914220D02A21595629
:100760000324914210D0134B19781A708171BFF392
:100770005F8F00220B4B1A608CF3108870BDAB6842
:100780000D4C5C50EFE700246100091989005B18EB
:10079000FF21997109499980E5E70124F4E70224D2
:1007A000F2E7C046240100D0BC010020AAAA000044
:1007B00000ED00E0310A0220CD01001001BDFFFF75
:1007C000054B064A1360064A136053609360D3607A
:1007D00013615361936170478080808000E400E082
:1007E00004E400E0024B9C466144890001607047CC
:1007F0004000003410B50400FFF72AFE010020007D
:10080000FFF7F0FF01235B426360BFF35F8F10BD12
:1008100010B50400FFF71CFE01002000FFF7E2FF07
:1008200001235B42636000232372BFF35F8F10BD1F
:1008300083680B4810B58446614462441201090183
:1008400059189B185C684A680120944201D802D06C
:100850000020C0B210BD1A680B689A42F9D8F7E7B9
:10086000FFFFFF0F074810B50268EFF3108172B663
:100870001368002BFCD0BFF35F8F01F043FE002014
:10088000002110BD1C090020F8B5574645464E46CC
:10089000DE46E0B598460CAB1C780DAB1B78070024
:1008A00091469A460568002C5ED1AC7B002C3BD06B
:1008B000660029683619033E89194B78AB73002B03
:1008C00000D1EB7300238B704B700B702D4BE21833
:1008D000BB6812019B184A461A6042465A600A9A3F
:1008E0009A600B9ADA6000238B704B700B706B7BF5
:1008F0009B46002B2BD022005946A8686B6898476E
:100900002A68002816D05B4658465B005B4496195F
:10091000033BB070D118D35C002B00D073705B46E2
:100920000C706B735C4513D0F0BCBB46B246A94655
:10093000A046F8BD5B465B005B44033BD3189C704C
:100940009119925D002A00D05A705B460B706C734F
:100950004A464346387D00F021FB051E0AD10E9B16
:10096000002BE1D01D70DFE7660029683619033ED1
:100970008919ABE75346002BF1D12100386800F00C
:1009800031FDECE7FFFFFF0FF0B5DE4657464E4660
:1009900045460023E0B58BB00893684B8200D458DD
:1009A00000239B46099000F0A9FA02000B00606842
:1009B000EFF3108A72B6564601680029FCD0B246A1
:1009C000BFF35F8F21684F7B8C46002F2ED0A56828
:1009D0005B49A9467918090189444946086849686C
:1009E00005000E00AD1A9E41002E5FDD02000B00D7
:1009F000099800F0D3FA00230022994600230692BA
:100A00000793002398466368BFF35F8F5A461A60C6
:100A10008AF310884346002B12D10028C3D10BB0B3
:100A2000F0BCBB46B246A946A046F0BD002300225A
:100A30009946002306920793002300209846E2E798
:100A4000089B494618023843C047626805000E00FB
:100A5000EFF3108A72B61368002BFCD0BFF35F8FE0
:100A6000002E41DB2B00334302D02369002B56D1EB
:100A70002368D97B002905D01A684800411852180C
:100A8000033A57709A7B002A00D19F73DF73E268A4
:100A9000013FD35D0133D3555B4623616368BFF3E8
:100AA0005F8F5A461A608AF310887CE7002E02D1C5
:100AB000002D00D09AE70021604600F011FC4B4663
:100AC0001A685B68069207934B469B6898464B46AC
:100AD000DB689946E368DB19013B1B7808931B022E
:100AE0000343236100208EE72369002BC0D0069AC0
:100AF000079B8021521BB34109068B4202D301227E
:100B0000104B524200210491013103914946019159
:100B10004146200002970091FFF7B6FEBCE700F0C7
:100B2000EDF92A00330012184B41802109068B424F
:100B3000E8D30122034B5242E4E7C046640600209A
:100B4000FFFFFF0FFFFFFF7F10B5144C6368002B02
:100B500004D00A211248FFF745FE10BD2300114AB8
:100B60001021206800F0D2FA032000F0BBF9032026
:100B700000F07CFA03200C4900F0CAF9FFF768FC8A
:100B80000A4B9C4603232375D0231B061B68604435
:100B90006375074B80006060DC60DAE704020020C8
:100BA0001C090020310800108909001040000034A1
:100BB00064060020F0B557464E464546DE46E0B591
:100BC00085B0019310AB1B780600039300239A466F
:100BD000984600927268EFF3108B72B61368002B80
:100BE000FCD0BFF35F8F3568AC7B002C00D16FE089
:100BF00067002B683F19033FDB195A78AA73002A54
:100C000000D1EA734B4AA118B26809015218009842
:100C10000199106051600E9991600F99D160424620
:100C20009A705A701A706B7B9946002B00D170E055
:100C300022004946A8686B6898472A6800285BD05C
:100C40004B4648465B004B44D719033BB870D1185C
:100C5000D35C002B00D07B704B460C706B734C4503
:100C600058D0F3681B19013B18787368BFF35F8F86
:100C700042461A608BF310885346002B08D10002BD
:100C8000204305B0F0BCBB46B246A946A046F0BD25
:100C9000039B002B4BD00E9B00200F99984703001D
:100CA00004000D000B4342D000291ADA009A019B80
:100CB000121BAB410092019380221206934204D38F
:100CC00001231D4C5B4200930194039B9A4681E7EC
:100CD0007368BFF35F8F1C608BF310880120404264
:100CE000CFE700F00BF9802224184D411206009442
:100CF00001959542E9D3E3E74B465B004B44033B48
:100D0000D3189C70D119D25D002A00D05A704B467E
:100D10000B706C73307D009A019B00F03FF98246A6
:100D200000289ED02100306800F05CFB99E700208D
:100D3000A7E7C046FFFFFF0FFFFFFF7FF0B5EFF310
:100D40000583CE46474680B505000C0085B0002BD4
:100D50000DD0324A0020536A9C4203D8926A013077
:100D6000AA4232D305B0C0BCB946B046F0BD2C4E45
:100D7000029301932B4B0200009330000B00FFF70E
:100D800019FF031EE5DD20BF7168EFF3108772B60F
:100D90000A68002AFCD0BFF35F8FDAB2944630684D
:100DA000427B624516D0FF2201681A4089465100F5
:100DB00088464946904441440339897800290BD13B
:100DC0003269934210D131610EE0E31A5A1E934109
:100DD000D8B2C7E7FF221A40F1681B0A8A18013A05
:100DE0001278DBB29A4214D07368BFF35F8F00228F
:100DF0001A6087F31088094B00205A6A9442B1D8D0
:100E00009B6A0130AB42ADD2A41A631E9C41E0B292
:100E1000A8E7614600F0E6FAE6E7C0460040054074
:100E20000402002065080010F0B5EFF30582D646F5
:100E30004F4646461000C0B51038EFF3108872B622
:100E4000214C2368002BFCD0BFF35F8F01231900D6
:100E500081401E4D1F006963AA461D4D29601D4D2E
:100E60002E78AC463500C5402F402B4215D0534656
:100E70005F6A194B8500EB589F4218D36246174BA7
:100E80008E43EB581670BFF35F8F0022226088F309
:100E90001088002B06D0984704E0BFF35F8F2760CF
:100EA00088F31088E0BCBA46B146A846F0BD0C4BAA
:100EB00092009C46624413681360BFF35F8F002367
:100EC000236088F31088EDE7280100D0004005403A
:100ED0003C700540320A0220200900200406002050
:100EE000D03F054010B5034B01001800024AFFF740
:100EF0007FFA10BD300A02204C540010034B596A8F
:100F00000A00986A596A8A42FAD17047004005403F
:100F100070B504000D00EFF3108672B61A4A13681C
:100F2000002BFCD0BFF35F8F002D1BD02000FFF7FC
:100F3000C5FA164981420AD02000FFF7C7FA0121FD
:100F40002000FFF79DFA0123A340114A1360114BC3
:100F5000A400E550BFF35F8F00220B4B1A6086F3AD
:100F6000108870BD0121A1400A4BA200D5500A4B48
:100F700020001A788A4305491A70FFF7D1FA002138
:100F80002000FFF77DFAE5E7280100D0290E0010C8
:100F90003860054004060020320A0220F0B54F46B2
:100FA000D6464646C0B507002B4C616A0D00A66ABE
:100FB000616AA942FAD18B4208D805D00120E0BC71
:100FC000BA46B146A846F0BDB242F7D9EFF3108A4F
:100FD00072B6224801680029FCD0BFF35F8F01255B
:100FE000BD401F491C4C8846097889462943C9B22F
:100FF0008C46414660460870391D890065630A5178
:101000001849B8004350216A0020294219D0616A6A
:101010000800A66A616A8142FAD18B4219D801D1CF
:10102000B24216D8CC450BD00B4B1F221D625D631C
:1010300001233A4093400C4A136043464A461A70D3
:101040000120BFF35F8F0022044B1A608AF31088DF
:10105000B5E70020F5E7C04600400540280100D074
:10106000320A02202009002080E200E0EFF3108C19
:1010700072B60A490B68002BFCD0BFF35F8F0123C7
:101080008340074A0748136202789A430270BFF30D
:101090005F8F00230B608CF310887047280100D00D
:1010A00000400540320A022070B505000E00140011
:1010B000002923D0002A12D080686B6898472968DD
:1010C00000280ED063001B197200033B9219CB1845
:1010D000033A9E7088188A5C002A11D1047030008F
:1010E00070BD73009B196200033B1219CB18033AC1
:1010F0009C7088188A5C002A05D106702000EFE7F2
:101100005A700470EBE75A700670F7E730B58360E9
:101110000023CCB243730133047342608373C473FE
:101120000D000068012C06D9421C0133DBB213709C
:1011300003329C42F9D1FF2129404B005B18C018B3
:1011400000230338437030BD70B505000C1E07D076
:10115000630001681B19033BCB185A78002A01D1A0
:10116000200070BD500080180338091800204E7808
:101170004870210058702800FFF796FF31000400E6
:101180002800FFF7E1FF0600002C26D00028E7D05A
:1011900021003200A8686B689847296800280ED0A3
:1011A00073009B196200033B1219CB18033A9C7021
:1011B00088188A5C002A00D05A700670D0E7630055
:1011C0001B197200033B9219CB18033A9E708818C2
:1011D0008A5C002A00D05A7004703400C0E7C04610
:1011E000F0B557464546DE464E46E0B50D006F0069
:1011F00001687F19033F0400C85D83B00192CA19DA
:10120000002850D043001B18033BCB185E78B4462F
:10121000002E1AD1019E002E42D0E67B002E04D073
:1012200073009B19CB18033B5D70A37B002B00D18F
:10123000A573E57300282FD10023537003B0F0BCD1
:10124000BB46B246A946A046F0BD72006244033ACE
:101250008A185178884600215170894659703200A9
:1012600001002000FFF720FF43468246002B07D0F5
:101270005B0021684344033BCB185A78002A16D1FF
:10128000424651462000FFF70FFF2168019BCA1913
:10129000002BC2D10028CFD043001B18033BCB1832
:1012A00000219970C8E7019B002BB6D1C4E750001C
:1012B00080180338091848788346484648705870A3
:1012C00041462000FFF7F0FE594680462000FFF718
:1012D0003BFF414602002000FFF7E6FE8046CFE7D5
:1012E000F0B557464546DE464E46E0B583B001911F
:1012F000457B04006F0000687F19033FC15DC21980
:10130000002952D04B005B18033BC3185E78B446EB
:10131000002E1CD1019E002E44D0E67B002E04D06E
:1013200073009B19C318033B5D70A37B002B00D196
:10133000A573E573002931D1002328005370617330
:1013400003B0F0BCBB46B246A946A046F0BD720051
:101350006244033A821850788046002050708146DB
:10136000587032002000FFF79FFE43468246002B54
:1013700007D05B0021684344033BCB185A78002A0E
:1013800017D1424651462000FFF78EFE019B010017
:101390002068C219002BC0D10029CDD04B005B18AA
:1013A000033BC31800209870C6E7019B002BB4D103
:1013B000C2E7500080180338091848788346484629
:1013C0004870587041462000FFF76EFE594680462F
:1013D0002000FFF7B9FE414602002000FFF764FE3F
:1013E0008046CEE770B5050000292CD0437B8B42A8
:1013F0002ED04C0000686418033C0419A278002A1F
:1014000021D053009B18033BC25CC6188A4202D10C
:101410001BE0002A08D053009B18033BC3185A78DE
:101420008A42F6D162785A70002301222800A37004
:101430006370FFF7D5FE697B02002800FFF734FEDA
:101440006873012000E0002070BD63783370EBE723
:1014500001221900FFF7C4FEF2E7C04610B50C20C8
:1014600082B000F0B5F9FEF7BBFF002810D08B4B1F
:101470008B488B498B4A186059609860D960186115
:1014800059619861D961186259625A6202B010BDFF
:10149000854CA06700F0A4F90122844B1A60636CAC
:1014A000012BFCD10322824B1A607F4A936B012BE4
:1014B000FCD1013301217F4A7F480093043300F0BF
:1014C00037F905237D4A009301217D4800F030F96A
:1014D0007C4B5A68FF2A02D8802252005A60802230
:1014E000734B6E4C12011A602169002907D06069A4
:1014F00000F08CFA013043001B18033BFDD2E022C0
:10150000704B714819680A40026002221968514004
:1015100001320A40042102609A681142FCD0802105
:101520006A4A09011160802252005A60684B2361A7
:10153000684B5968FF2900D85A60032201215B4B90
:101540001A60644A93681942FCD0E0231068034093
:1015500061480360126803234A40022113405D4A38
:10156000036093681942FCD080215C4B090119602B
:1015700080215B4B4900516063615A4B5A68FF2AD6
:1015800000D859608022584B12011A60E169002985
:1015900007D0606900F03AFA013043001B18033BA2
:1015A000FDD2E0234F4A11680B4050490B60802167
:1015B0004F4B090119608021394B49005160E361AB
:1015C0004C4B5A68FF2A00D8596080224A4B1201BE
:1015D0001A60216A002907D0606900F017FA01300B
:1015E00043001B18033BFDD2E023424A11680B4025
:1015F00042490B608021424B0901196080235B0046
:1016000053608022264BD20223623E4B596891429E
:1016100000D25A6080223C4B12011A60616A002994
:1016200007D0606900F0F2F9013043001B18033B5A
:10163000FDD2E023334A11680B4034490B6080210E
:10164000334B090119608023DB025360154B636241
:10165000304B5A68FF2A02D8802252005A608022FA
:101660002D4B12011A60A169002907D0606900F0B2
:10167000CDF9013043001B18033BFDD2E023254A7E
:1016800011680B4025490B608021254B0901196029
:1016900080235B005360124BA361F7E680020020B9
:1016A000006CDC021BB70000008000403CB0004032
:1016B00030B00040002F685900800240008C8647FF
:1016C00000C00240308000403090004030A0004018
:1016D000001BB7003C8000403C9000403CA0004014
:1016E000405973075480004054B00040549000406B
:1016F00054A000406080004060B000406090004016
:1017000060A000406C8000406CB000406C900040D5
:101710006CA000404880004048B000404890004025
:1017200048A00040014B8000C05870478002002054
:10173000F8B5040021481D0017000E0000F066F9FE
:101740000100380000F062F9069B29041B031943CD
:101750002368002B20DB1A4B1A4DE21853425A41E2
:1017600080235B019C461203174B62441A60174B9F
:101770001A601700AB689F43FBD1C022231D920162
:101780001A4321232660A06013602368002BFCDA33
:101790000823E1601360F8BD3F2322681340B34281
:1017A000D9D1A3681B051B0D8342D4D1EE22E36877
:1017B000D20213408B42CED1EDE7C046001BB700EA
:1017C0000040FDBF00C0004000E0004000F00040CD
:1017D0008023024A9B000343D36270470080054088
:1017E000AA23064A1B0113602F230549D360054B2A
:1017F00019605368002BFCDA7047C0460040024075
:1018000000B0FA00006002402C4B2D4A70B51A60FF
:101810002C4A2D4B2D491A6014008B689C43FBD138
:101820002B4D2C4EB54208D2013E761BB60808CD92
:10183000984723000134B342F9D1FFF70FFE264A3F
:10184000214B1A60214A9368DB43DB01DD09002B41
:10185000F9D14022214B224C224E9A675A671A67CF
:10186000DA66B44208D223682000002B20D00C3462
:10187000FEF7CEFFB442F6D31B4C1C4EC022B1681B
:10188000200000F0B3FBB460FEF7D4FDFEF798FF34
:10189000FFF75AF9164C174EB44208D2013E361BD8
:1018A000B60808CC98472B0001359E42F9D170BD8F
:1018B0000834FEF79FFFB442D5D3DDE700E00040D7
:1018C000BFCDFBFEFE7F3C0000F0004000C00040AA
:1018D0006802002078020020FFFFFF0100F00140B5
:1018E00058020020680200200000002000ED00E007
:1018F000780200208002002000BEFDE710B5FFF74F
:10190000FBFFC0460FB400B5084883B000F01EFCD2
:10191000049B002B07D005A91800019100F01EF8C8
:10192000034800F013FC0120FFF7E6FF705400109D
:101930008054001010B50148FFF7E4FF84540010F4
:1019400010B50148FFF7DEFF9454001010B50028D1
:1019500000D110BD00F0AEFBFBE7C04610B5094A50
:101960000300146884B0002C08D0012200910648BE
:10197000524203A9A047012004B010BD00F0E6FBCD
:101980000020F9E7600600204D19001001480421ED
:10199000014B184730020020C9190010014B5B6849
:1019A0001847000030020020142310B501001888E9
:1019B00004331B88984710BD162310B50100188802
:1019C00002331B88984710BDF8B54746CE4680B510
:1019D0000F1E19D014239946043304000025012654
:1019E00098464B461888434621681B88984701C48F
:1019F000431E9841013540420640AF42F1D13000CC
:101A0000C0BCB946B046F8BD0126F8E7114A936F4D
:101A10009B0813D210665166002905D0FFE7FFE747
:101A2000FFE7516F106F704704B5002801D0002008
:101A3000C04303F0E5FC002104BDC046F0B5146EC0
:101A4000556E576F166FFFF7E5FF146655665767BB
:101A50001667F0BD000000D094464A4A926F920883
:101A6000624601D228E0C046F0B5464E346E756E2F
:101A7000776F366F00F020F89446424A1466556638
:101A8000576716676246F0BD94463E4A926F9208C9
:101A9000624601D254E0C046F0B53A4E346E756EDF
:101AA000776F366F00F04CF89446364A14665566E8
:101AB000576716676246F0BD002B24DB11D0002962
:101AC0003EDA00B5C943404200D1013100F038F898
:101AD000C943404200D10131DB43524200D10133BE
:101AE00000BD002AEBD1002801D1002905D000203B
:101AF000C90FC90701D1C043410800B503F078FC04
:101B00000022002300BD00B500290ADBDB4352425E
:101B100000D1013300F014F8C943404200D1013133
:101B200000BDC943404200D10131DB43524200D1E4
:101B3000013300F005F8DB43524200D1013300BD10
:101B4000002923D1002B18D1002A0CD0BC460D4F00
:101B500038667A6600210023FFE7FFE7FFE77A6F28
:101B6000386F67467047002801D00748010000B56C
:101B700003F03EFC0022002300BD02000B00002009
:101B800000217047000000D0FFFFFFFF002B00D0B6
:101B9000BFE0130C28D1002AE7D080B4114F39667A
:101BA0007A66FFE7FFE730B4040C7B6F396F1B04E4
:101BB00023433B667A66FFE7FFE7FFE7C04684B250
:101BC0007B6F3D6F1B0423433B667A66FFE7FFE7AD
:101BD000C04600232C042D0C7A6F386F0019694120
:101BE000B0BC7047000000D0F0B594460025140E3C
:101BF00001D112020835140F01D112010435940FDE
:101C000001D192000235D40F01D152000135D40B1D
:101C10000134254F7C66254C3C660E0C93B2FFE7E1
:101C2000FFE7FFE73C6F6643360C7703BE4673431E
:101C3000DF0B5B04C01AB941130C7343DB18C91ADC
:101C4000CE086643360CB64493B273431F0F1B0194
:101C5000C01AB941130C73431F0B1B05C01AB941BD
:101C6000860D8F023E436643360C092D24DB520A53
:101C70007243801A7703460A6643360C16235B1BB1
:101C8000DE40DF40BF1964466643821B7046043560
:101C900006330100D940A840C01900D30131A24247
:101CA00006D20023F0BD0000000000D0FFFFFFFFC0
:101CB000121B0130F3D3F1E709277F1BFE40644676
:101CC000A2B27243801A00D20139220C7243130C63
:101CD0001204821A99410B00704604351337010033
:101CE000F940A840801900D30131002B02D1A24253
:101CF0000AD2F0BD013000D30131121BFAD2013BF0
:101D0000F8D1A24200D2F0BD013000D30131121B44
:101D1000F7E7F0B51C0C00D080E00CB400251C0ADD
:101D200004D11B02160E3343120208351C0B04D1DA
:101D30001B01160F3343120104359C0B04D19B0089
:101D4000960F334392000235DC0B02D192185B41AF
:101D500001351C00971864410134464F7C66464C9F
:101D60003C660E0CFFE7FFE7FFE7C0463C6F6643AB
:101D7000360C7703BE4697B27743C01B00D20139B9
:101D8000C01B00D201399FB27743C91BC91B170C76
:101D900077437E04FF0B801BB941CE086643360CA7
:101DA0000C2D33DBB644120B1F053A431B0B97B2C5
:101DB0007743C01B00D201399FB27743C91B170C70
:101DC00077433E043F0C801BB941860D8F023E4392
:101DD000664329277F1BFE400C3D7746AF40BF1965
:101DE00030BCA2B2ABB272437343801A9941220C49
:101DF0007243130C1204801A994102000B00013740
:101E0000001BA941F9D2781E0021F0BD0C277F1BD1
:101E1000FE4077467F0BAF40FF19E0E700245D1CD2
:101E200007D0144F7D663966FFE7FFE7FFE7FFE75E
:101E30003C6F95B29EB265436643401BB141150CA1
:101E40001E0C6543664336042F0C3E432D04401B95
:101E5000B141994204D202000B0020000021F0BDE4
:101E600001D19042F7D3801A994101349942F2D3BB
:101E7000F6E70000000000D0FFFFFFFF132370B55E
:101E80001D78012D15D010DD1D48FFF795FD1D4C67
:101E900001008022200000F0A9F8022D2DD01A4860
:101EA000FFF782FD194B186070BD194B154CA364E8
:101EB000F5E7174B134C23606360A360E360236175
:101EC0006361A361E36123626362A362E3622363EC
:101ED0006363A363E36323646364A364E3642365CC
:101EE0006365A365E36523666366A366E3662367AC
:101EF0006367A367E367A364D1E7054BA364CEE7F9
:101F000053440000A80300204C33000018090020AF
:101F1000151F001007B5604601880A0A0230DF2A43
:101F2000FAD1C9B2820804D3028840880004104361
:101F300000E00068014A5050039007BDA80300204C
:101F4000132310B512481C78FFF736FD0100012C51
:101F50000AD003DD80220F4800F048F80E48FFF752
:101F600023FD0E4B186010BD0A4C5422200000F0D7
:101F70003DF80B4B6365A365E36523666366A36663
:101F8000E36623676367A367E3672362E361E5E7CB
:101F900053460000A80400204C330000180900201C
:101FA000A51F001007B5604601880A0A0230DF2A23
:101FB000FAD1C9B2820804D30288408800041043D1
:101FC00000E00068014A5050039007BDA8040020BB
:101FD00001480421014B184740020020C919001094
:101FE000014B1B681847000040020020014B5B6852
:101FF0001847000040020020F0B546464F46D6463E
:10200000C0B5437D80460E001700002B4BD0002A40
:1020100032DD274B01259A464B1E002400209946AD
:1020200007E0335D0A2B2CD02B0001340135BB4275
:1020300013DA002CF5D133780A2BF5D143461B7DFA
:10204000002BF1D14346504602211B6898472800D7
:102050002B0001340135BB42EBDB874204DD4346F4
:10206000391A1B6830189847F619013E33780D3B32
:102070005A42534142461375E0BCBA46B146A8469F
:10208000F0BD4B461B5D0D2BCED0A042DADA4346A5
:10209000211A1B68301898474346504602211B6896
:1020A00098472800D4E70368110030009847E3E719
:1020B00008550010F0B5CE46474680B583B06B4654
:1020C0000600DD1D2870FEF719FF00231A4A1218BA
:1020D0004B41802109068B4202D30122174B524209
:1020E00017490800884603F093F9164B81461C688F
:1020F000002C14D0144F02E02469002C0FD0236868
:10210000002BF9D03B68002B01D0A342F4D1200072
:1021100001222900FFF770FF2469002CEFD14B4604
:10212000002B05D1300003B0C0BCB946B046F0BDAD
:10213000404603F055F9F5E740420F00FFFFFF7FEF
:1021400060020020580600205C060020F0B5DE4644
:1021500057464E464546E0B585B0070003F00EF9F8
:102160000600FEF7CBFE00232B4A12184B418021BC
:1021700009068B4202D30122284B5242284908000B
:102180008B4603F045F9274B01901C689A46002CBA
:102190003BD0254B984602ABDD1D0A23994602E051
:1021A0002469002C17D02368002BF9D043461B6804
:1021B000002B01D0A342F3D1200032003900FFF7F9
:1021C0001BFF4B462000012229002B70FFF714FF54
:1021D0002469002CE7D1019B002B18D153461C68C1
:1021E000002C06D06368002B0BD098472469002C84
:1021F000F8D1300005B0F0BCBB46B246A946A046B7
:10220000F0BD2469002CEDD1F3E70028F1D0584649
:1022100003F0E6F8E2E7C04640420F00FFFFFF7F11
:1022200060020020580600205C0600207047C0466F
:102230000BA10CC9126892009B581868203080F3DB
:102240000988022080F31488BFF36F8F3FBCAE462D
:1022500008BC04BC62B61847C046C046C046C0466B
:10226000000000D074060020D0231B061A6DD20790
:1022700004D501219A6D1A6D1142FBD1D023FF22A2
:102280001B061A658022024B52051A607047C04631
:1022900004ED00E00000000000000000000000006D
:1022A000EFF309811AA00CC8106880001B18186889
:1022B00020390160F0C144464D4656465F46F0C1A4
:1022C000146E556E566F176F3039F0C1106808B52F
:1022D00072B601F06BF962B60CBC11680868103078
:1022E000F0C8A046A946B246BB4680F309880D2235
:1022F00012073038F0C81466556656671767F0C87D
:102300001847C046C046C046C046C046C046C04644
:10231000000000D07406002010B5EFF3108472B6F0
:1023200001F030FF02F092FA002803D08022044B23
:1023300052051A6001F0ACFF84F3108810BDC0464E
:1023400004ED00E010B5FFF7F5FAC04610B58024A3
:10235000031F64041C60043B19600349043B1960BB
:10236000143B40381A6010BD452300108022044BF6
:1023700052051A60BFF34F8FBFF36F8F7047C0468F
:1023800004ED00E0D0231B061B6808499B005A5847
:10239000002A08D00020585005495B58BFF35F8FD2
:1023A000106083F3108862B67047C04610090020A1
:1023B00038090220D02300221B065A657047C04608
:1023C000002310B5084A094C052023601360FFF76D
:1023D000A9F9FA218900FFF719FB054B01381860AC
:1023E0000723236010BDC04618E000E010E000E0C5
:1023F00014E000E070B5244B1A78D0231B061B684C
:102400009A4232D0FF230220204A1B041168404226
:102410000B4313601E4902F00BFE05201D4940428C
:1024200002F006FED023FF221B061A651A6DD207A2
:1024300004D501219A6D1A6D1142FBD1D0252D06CC
:102440002C68FF210F342000FEF74CF920001249C0
:10245000FEF73CF801212000FEF712F8FFF7E8FE36
:10246000286801F0A3F8FFF765FAFFF7A9FFFF233B
:102470000120064A1B06116840420B4313600749BE
:1024800002F0D6FDBEE7C0465002002020ED00E07D
:10249000A12200102D220010692200101923001023
:1024A00010B5EFF3108372B6FFF7A4FF10B50E203E
:1024B000FDF7DAFF0F20FDF7D7FF0022034B04489A
:1024C0001A7002F023FEFFF795FFC046500200206D
:1024D000A124001010B50A4B1B78FF2B0CD0EFF392
:1024E0000580002805D0D0231B061B684000C018BB
:1024F00010BD01F0FDFCFBE7D0231B061868F7E7D1
:102500005002002000B50A001B490368097883B017
:10251000FF2928D019498C46022163449B10FF31C2
:102520009940090A40BF0368BFF35F8F002018601D
:1025300082F31088EFF30583DBB2002B05D1104B3B
:10254000186800F04DF903B000BD0D4B019001AAD1
:10255000186800F08DF9019B002BF4D08022094B04
:1025600052051A60EFE740BF0368BFF35F8F002199
:10257000196082F31088E6E75002002000FFFF2F69
:10258000A809022004ED00E0F0B51D00314B070062
:102590001B780E00140083B0FF2B4ED0FEF7AEFC6C
:1025A00022002B00121A8B4101212B48494280182E
:1025B0005941002921DC1CD03B68BFF35F8F00220A
:1025C0001A6086F31088254B5A6A95420AD98022F0
:1025D000234B52051A60BFF34F8FBFF36F8F00205C
:1025E00003B0F0BD9B6A0120A342F9D29542F7D116
:1025F000EDE7FA239B009842DED3FA2200239200F3
:10260000FFF72AFA031ED7D0D02212061168154808
:102610003A6889000A5014480E5014498C46022129
:1026200062449210FF319140114A090A10680093E8
:102630000122002300F078F8C5E70368BFF35F8F3D
:1026400000221A6081F3108820002900FEF776FB33
:10265000C6E7C0465002002018FCFFFF00400540BE
:1026600004ED00E0100900203809022000FFFF2FD0
:10267000A809022010B500F04BF8014B186010BDFE
:10268000A8090220F8B5DE4657464E464546E0B555
:1026900005000F00060000F003FF29682C6939438C
:1026A0000C362960A6422AD0002398468023DB04FA
:1026B0009B4680235B049A4680239B0499460EE048
:1026C00019420AD057463A4202D042461A4390462F
:1026D0004B46194302F096FA2968A6420DD0200015
:1026E0005F460268646813021B0A3A42E8D00F0092
:1026F0001F40BB42E6D0A642F1D143469943296030
:1027000002F03CFAF0BCBB46B246A946A046F8BD72
:1027100010B51C2002F026FD041E03D0002308C0C3
:1027200000F0B2F8200010BDF0B5C646060000B5B6
:102730000D0090461F0000F0B3FE3468002F13D147
:1027400025420BD04346002B0BD02300AB43336014
:1027500002F014FA200080BCB846F0BD069B002BA6
:1027600021D102F00BFAF5E72B0023409D42E9D07E
:10277000069B002BF5D0434680215A1E9341C90485
:102780001B061943069A2943301D01F017F902F080
:10279000F5F900281CD002F05DFA0400830107D58A
:1027A0002402240AD6E741464B1E99410906E9E76F
:1027B00001F0E8FC3468002F0DD12C4205D04346CF
:1027C000002B02D02300AB43336001F061FDE7E74B
:1027D00001F0BEFCDFE723002B409D42F5D1EEE780
:1027E000F8B5DE4657464E464546E0B505000F00B3
:1027F000060000F055FE29682C6939430C36296023
:10280000A6422AD0002398468023DB049B468023DF
:102810005B049A4680239B0499460EE019420AD035
:1028200057463A4202D042461A4390464B46194315
:1028300002F0E8F92968A6420DD020005F46026840
:10284000646813021B0A3A42E8D00F001F409F42FF
:10285000E6D0A642F1D143469943296002F08EF9B1
:102860002868F0BCBB46B246A946A046F8BDC046A3
:1028700010B5044C13000A000100200002F0C4FB54
:1028800010BDC046852600100300083301224360B6
:10289000C360036100235242826003607047C046F8
:1028A000002303617047C04643689A684B608A60A2
:1028B0005160996003680861013303607047C04646
:1028C000030030B50D6808336A1C0DD01C005B682E
:1028D0001A68AA42FAD94B60996003688C60013388
:1028E00061600861036030BD04696368F3E7C04656
:1028F0000369416882688A6051605968814206D0E4
:10290000002202611A68013A1A60186870475A601A
:10291000F6E7C046F0B5DE464E4657464546E0B5BA
:1029200085B0060001F02EFC4523F45C64B2002C57
:1029300021DD213B994621339A46B14409E0AA6B37
:10294000EB6B03969A4245D3013CE3B264B2002B91
:1029500011D0B56C002DF2D1736A002B0BD0484614
:1029600001F0D0F80028EFD001F0B8FA013CE3B252
:1029700064B2002BEDD14523FF22F25401F088FC14
:1029800001F000FC4423F45C64B2002C16DD350039
:10299000103504E0013CE2B264B2002A0ED0336983
:1029A000002B0BD0280001F0ADF80028F2D0013C3C
:1029B00001F094FAE2B264B2002AF0D14423FF227B
:1029C000F25401F065FC05B0F0BCBB46B246A94626
:1029D000A046F0BD53462A6CEF5CAB6B7FB29846C5
:1029E000002A0DD12B689B46002B29D0434601338A
:1029F000AB637B1C16D0534601377FB2EF54A3E77D
:102A0000686803A9FFF7F2FA6B682A6C9B18AA683A
:102A10006B609342EAD32B686B6043460133AB6330
:102A20007B1CE8D16B6A002B00D18DE72800243095
:102A300001F068F8002800D186E701F04FFA95E729
:102A4000A86801F059FB5B46AB6043460133019037
:102A5000AB637B1C0AD0534601377FB2EF54019B16
:102A6000002B00D170E701F039FA7FE76B6A002B89
:102A7000F5D02800243001F045F80028EFD073E7A6
:102A8000F0B5C64600B5846C82B0A26BE36B00263D
:102A900001909A4204D3300002B080BCB846F0BD29
:102AA0004523226CE55CA76B6DB2002A16D06068E6
:102AB00001A9FFF79BFA6368226C9B18A268636008
:102AC000934201D32368636000260137A7636B1C20
:102AD0000FD0452301356DB2E554DCE723689846F5
:102AE000002BF1D1A06801F007FB43460600A3606C
:102AF000EBE7636A002BCED02000243001F002F80F
:102B00000028C8D00126C6E7F8B5060008007043C3
:102B100054300D00170002F025FB041E25D00300E1
:102B2000002D24D123602564E66301F02BFB226C89
:102B3000E36B21685343C8189B1A61600025C918CC
:102B40004422FF23A0602000E160A563A35401326A
:102B5000A3541030FFF798FE20002430FFF794FEB6
:102B600001F096FB5023E754A5642000F8BD5433D0
:102B7000D8E7C046F0B5C646040000B584B01F00D3
:102B80000192884601F0FEFAA26BE36B9A424DD3A4
:102B90000023022F73D0442500260DE001F078FBBE
:102BA0002000FFF7B7FE01F0E9FF01F0EBFAA26B9E
:102BB000E36B9A423AD30123019A002A7BD0002B7F
:102BC00059D001F065FB00F06BFC01F0DBFA635DAE
:102BD0005BB2013300D166554523E25C52B201324B
:102BE00000D1E65401F054FB01A902A801F036F827
:102BF000002867D101F0C6FAA26BE36B9A42CDD1EF
:102C000001F046FB20000199103000F067FE200023
:102C1000FFF780FE01F0B2FF0028C6D101F098FA5C
:102C200001F0B0FAA26BE36B9A42C4D2226CA66B9D
:102C3000A56B002A28D0002F66D141466068FFF7B7
:102C4000D5F96368226C9B18A2686360934269D3CC
:102C5000236801356360A36CA563002B22D1636AEE
:102C6000002B24D02000243000F04CFF00281ED080
:102C700001F06EFA1BE002A800F0E4FFA1E7226C6D
:102C8000A66BA56B002A23D1236800209846002B51
:102C900054D0A36C0135A563002B2FD0022F01D196
:102CA000002E04D12000FFF7EBFE0028E0D101F058
:102CB000EFFA012002E001F0EBFA002004B080BC42
:102CC000B846F0BD2000FFF725FE01F057FFF4E7FE
:102CD0004146E068FFF78AF9226CE36851429B1A8B
:102CE0002268E360934202D2A3685B18E360002D80
:102CF0001ED0A36CA563002BD2D1B0E7636A002B72
:102D0000B0D10028B4D1D2E74146E068FFF76EF9B0
:102D1000226CE36851429B1A2268E360934213D30A
:102D2000022FE4D0A36C0135A563002BBAD196E73E
:102D30000123A363A36C002BB2D190E7A06801F03C
:102D4000DBF94346A360A4E7A3685B18E360E7E709
:102D5000F8B557464546DE464E460400E0B5904677
:102D60000F001D00EFF3108972B601F00BFAA26B91
:102D7000E36B9A4225D30026022D0AD001F088FA8F
:102D800089F310883000F0BCBB46B246A946A04685
:102D9000F8BD4523E65CA36B226C9A46A36B76B222
:102DA0009B46002A29D12768002F5FD05B4601335C
:102DB000A363731C37D04523013676B2E65401264F
:102DC000DCE74523E65CA36B226C9A46A36B76B2E4
:102DD0009B46002AE7D0002D0FD139006068FFF72D
:102DE00005F96368226C9B18A26863609342DDD387
:102DF000236863605B460133DAE73900E068FFF778
:102E0000F5F8226CE36851429B1A2268E360934212
:102E100002D2A3685B18E3605B46022D22D0013327
:102E2000A363731CC7D1A36C002B11D0022D02D158
:102E30005346002BC3D12000FFF722FE0028BED04E
:102E40004346002BBBD0012342460126136095E781
:102E5000636A002BB3D02000243000F053FE00281A
:102E6000EED1ACE7002BA3D10133D9E7A06801F084
:102E700043F9A7609AE7C046F0B54746CE4604003E
:102E800080B585B08846019201F07CF9A76B002FD0
:102E90005FD1019B002B3BD002A800F0D3FE0023A2
:102EA00044269946452501F0F3F900F0F9FA01F0BE
:102EB00069F9A35D5BB2013301D14B46A355635D54
:102EC0005BB2013301D14B46635501F0E1F901A931
:102ED00002A800F0C3FE002822D101F053F9A36B31
:102EE000002B2AD101F0D4F920000199243000F000
:102EF000F5FC2000FFF70EFD01F040FE00283DD05C
:102F000001F040F9A76B002F23D1019B002BCAD100
:102F100001F0BEF9002005B0C0BCB946B046F0BD16
:102F20002000FFF7F7FC01F029FE01F02BF9A36B5D
:102F3000002BEDD001F0ACF9E2E701F0A9F9200097
:102F4000FFF7E8FC01F01AFE01F01CF9A76B002F57
:102F5000DBD0226C002A08D0E168A3688918E16000
:102F600099420ED24046FFF741F8013FA76323691B
:102F7000002B09D101F08CF90120CCE701F0E8F831
:102F8000BEE72168E160EDE72000103000F0BAFDF7
:102F90000028EFD001F0DCF8ECE7C046164B1A68C9
:102FA000002A15D09A68002A18D01A69002A17D06A
:102FB0009A69002A16D01A6A002A15D09A6A002A3D
:102FC00014D01A6B002A13D09A6B002A12D07047C3
:102FD0000022D20099509B185860F8E70122F8E7C8
:102FE0000222F6E70322F4E70422F2E70522F0E7E3
:102FF0000622EEE70732ECE7A805002070B50400D2
:1030000016000D0001F0BEF84422A35C5BB2013350
:1030100001D10023A3544522A35C5BB2013301D14B
:103020000023A35401F034F9A36B002B03D020003C
:10303000FFF770FC70BD200032002900243000F042
:10304000E1FCF4E710B5FFF791F9034C2368022B7C
:10305000FCD9FFF78BF9F9E790060020F0B5C646DA
:10306000304B00B5040088461E68EFF3108172B63D
:10307000D0273F063B682C4D9B00EA5881F310880F
:103080007D230021D154EFF3108272B63B689B0080
:10309000E85882F310880830FFF72AFC631C30D010
:1030A0003419EFF3108172B6D022120613689B0018
:1030B000EB5881F310889C60A64214D81B4B18680B
:1030C000EFF3108672B613689B00E95886F31088F8
:1030D0000831FFF7F5FB164B1A68A24200D91C60B5
:1030E00080BCB846F0BD134B1868EFF3108472B67D
:1030F00013689B00E95884F310880831FFF7E0FB60
:10310000EEE74346002BCBD0EFF3108272B63B685C
:103110009B00E95882F3108807480831FFF7C4FB89
:10312000DEE7C0461C0A022074060020800600204C
:10313000C009022088060020F4090220D023F0B53F
:103140005746DE4645464E461B061B685A4A9B00BC
:10315000E0B5D35883B09846584B594F9A46594BCF
:1031600001929B4659E042461365D023534D1B06FE
:103170001A682B78534C013BDBB22B70002B07D124
:103180000121A35C8B43A354BFF35F8F4E4B1960A7
:10319000D0231B061A686B78013BDBB26B70002BE7
:1031A00008D10221A35C8B43A354BFF35F8F01229C
:1031B000464B1A60FFF7E6F8EFF3108372B6D023A0
:1031C0001B061A68414B196800294ED0BFF35F8F68
:1031D000012302216B70A35C0B43A354D0231B0675
:1031E0001A68394B1968002938D0BFF35F8F012363
:1031F00001212B70A35C0B43A354EFF3108172B633
:10320000D0221206136801989B00C35881F31088DE
:103210001E654B463B60002E35D043469B6B023308
:103220002AD143461E6D3B68994600233B60002E21
:1032300099D1D02355461B061A686B785C46013B32
:10324000DBB26B70002BB5D10221A35C8B43A3547E
:10325000BFF35F8F01221D4B1A60ABE7A15CC9076A
:1032600021D419680029C0D1FBE7A15C89071ED4CD
:1032700019680029AAD1FBE703B0F0BCBB46B246EF
:10328000A946A046F0BD2B781268013BDBB22B703B
:10329000002BC2D10121A35C8B43A354BFF35F8FEA
:1032A000094B1960B9E72B7801332B70A5E76B78D0
:1032B00001336B7092E7C046740600203409022087
:1032C0004809022030090220380100D03C0100D01A
:1032D00070B5EFF3108472B6D023334A1B06196819
:1032E0001368002B43D0314BBFF35F8F01220225BF
:1032F0002F4842705A5C2A435A54D0252D4A2D0635
:1033000016682968002E3AD0BFF35F8F01255A5CFA
:103310002A435A54284A116801311160D021090604
:103320000D68002101700120595D81435955BFF39B
:103330005F8F204B18601368012B02D084F3108834
:1033400070BDEFF3108172B6D0231B061A681B4BB9
:103350009200D35881F310881B6D002BEED1EFF350
:103360000583DBB2002BE9D1FFF7E8FEE6E70F4B60
:10337000585C80070AD410680028B5D1FBE75E5C72
:10338000F60708D41568002DBED1FBE7084842783F
:1033900001324270B1E7084A0078116801311160CA
:1033A0000028C8D12D68BEE73C0100D030090220BA
:1033B00034090220380100D0480902207406002098
:1033C0004A425141F8B5344C036B22685B1A156BC5
:1033D0002268D16B2268926B012A2AD965686168DC
:1033E0006268926B012A00D9F8BDCA6B2F6B9446B4
:1033F00001222A4E5242716800292CD0012AF3D8AA
:1034000000220021EFF30583DBB2002B2DD0D02367
:103410001B061B68994235D0950063599B6B02339C
:10342000E2D01000FEF7C6FF0222635952429A63AF
:10343000DAE71A4E3268002AD0D16D1A9D42CDDCEF
:103440004168C907CAD56768616863689B6B012BCF
:103450001CD90021D6E761467F1A9F42CEDC436823
:103460009B07CBD501220121CCE7950063599B6BCB
:103470000233B9D0D0231B061B689942D1D1012356
:103480007351B1E701239200B350ADE7CB6B3F6BB3
:103490009C462B00AFE7C04674060020280A022095
:1034A000384B70B51B68002B00D170BDEFF3108452
:1034B00072B6D023344A1B0619681368002B43D018
:1034C000324BBFF35F8F01220225314842705A5CB4
:1034D0002A435A54D0252F4A2D0616682968002EF3
:1034E0003AD0BFF35F8F01255A5C2A435A542A4AC7
:1034F000116801311160D02109060D6800210170A9
:103500000120595D81435955BFF35F8F214B1860EE
:103510001368012B02D084F31088C6E7EFF3108103
:1035200072B6D0231B061A681C4B9200D35881F345
:1035300010881B6D002BEED1EFF30583DBB2002B5F
:10354000E9D1FFF7FBFDE6E7104B585C80070AD492
:1035500010680028B5D1FBE75E5CF60708D4156853
:10356000002DBED1FBE70A48427801324270B1E734
:10357000094A00781168013111600028C8D12D680E
:10358000BEE7C046E80902203C0100D03009022015
:1035900034090220380100D04809022074060020B6
:1035A000014B18687047C0461C0A0220F0B5D023B2
:1035B000DE4657464E4645461B06E0B51A68BD4BEB
:1035C0000100186887B0002800D121E1BA4B9A4663
:1035D000BFF35F8FB94B9B46012358464370534658
:1035E00002209B5C034350468354D0231B061A6879
:1035F000B34B1868002800D114E1BFF35F8F01239B
:1036000058460370534601209B5C03435046835445
:103610000023AC4A1268002A31D00120AA4A89004E
:103620008850D0221206126859460B70002B09D11F
:103630005346012150469B5C8B438354BFF35F8FFD
:103640009F4B1960D0231B061A685B4659465B786E
:10365000013BDBB24B70002B0AD1534602219B5C2D
:103660008B4351468B54BFF35F8F0122914B1A60FD
:1036700007B0F0BCBB46B246A946A046F0BD924B8F
:103680008F00DA510593914B914C18689C460123A9
:103690008B40A046039151461D0083001A188D4EA1
:1036A000920091460832B246029406000124424438
:1036B00004910DE0002C04D0634661461B68013B79
:1036C0000B6014235B429846013ED218C144B300FC
:1036D00002999B199B00CB58002BEBD049467E4B9F
:1036E0005B589C682100944257D05346A846B24686
:1036F000019305E00198C059834237D08C4246D0EF
:103700006468944230D0E3689D6B681CF2D14646F1
:1037100058683042F2D0049AB046019E9246F2595F
:1037200003999563F259200099630192F351FFF7D1
:10373000DFF8029821004844FFF7B6F8019A002A02
:103740000AD0029811008446126B896993009B1875
:103750009B006344994226D0D0231B061A685B461F
:103760001B78013BDBB25FE76468CCE745465868ED
:103770002842C3D00399049A996320009246FFF728
:10378000B7F8029821004844FFF78EF8E4E7019B60
:10379000564645469A46002493E75346A846B24605
:1037A00091680193ACE701994B68C96B521A914635
:1037B0004246134259D1032214001C401A42CBD076
:1037C0001F2398464B460127A9461D0001E0002C07
:1037D00031D02000FEF7E2F84346181A3B00834040
:1037E00081009C43735872581B6BD26B9B1A9D428D
:1037F000EDDD7258926B002AE9DB7258926B012A58
:10380000E5DC059A5258002AE1D181461D00DEE729
:1038100029488246805C80072BD41868002800D095
:10382000D6E6FAE75046805CC00729D4186800281D
:1038300000D0E2E6FAE74D46012D8DD8EFF305837F
:10384000DBB2002B22D0D0231B061A6895422CD065
:10385000AC0033599B6B023381D02800FEF7AAFDE0
:103860000222335952429A6376E7F25952689343DF
:10387000A1E7124B9B465A465B7801335370B4E67E
:103880005B4658461B785A1C0270C2E6AC0033599E
:103890009B6B023300D15FE7D0231B061A68954269
:1038A000DBD1012205990A5158E7012105989200C0
:1038B000815053E73C0100D0300902203409022036
:1038C000380100D048090220280A022050090220AD
:1038D000900600207406002094060020F8B50C0025
:1038E000EFF3108272B6D026360633682D4D9B005A
:1038F000595982F310881C31FEF7E2FF2A4B1F68EA
:10390000EFF3108172B633689B005A5981F3108827
:103910007D230021D154EFF3108272B633689B00EF
:10392000585982F310880830FEF7E2FF631C2CD050
:10393000E419EFF3108272B633689B005B5982F38F
:1039400010889C60A7420DD9184B1868EFF31082BD
:1039500072B633689B00595982F310880831FEF71C
:10396000AFFFF8BD124B1868EFF3108272B63368E0
:103970009B00595982F310880831FEF7A1FF0D4BC7
:103980001A689442EDD21C60EBE7EFF3108272B636
:1039900033689B00595982F3108807480831FEF7B5
:1039A00083FFDEE7740600201C0A02208806002040
:1039B00080060020C0090220F409022070B50D0025
:1039C0001400EFF3108172B6D026360632680C4B25
:1039D0009200D25881F31088802109062943D161D1
:1039E000EFF3108572B632689200D15885F31088D3
:1039F0001C31FEF759FF01212000FFF72FFB70BD9E
:103A000074060020F0B5C6460C0000B51600EFF3B2
:103A1000108272B6D0231B061B68344D9B00E958F8
:103A200082F310881C31FEF73FFF002E01D00124E5
:103A300064422F4B1B689846EFF3108172B6D02773
:103A40003F063B689B00EA5881F310887D230021E4
:103A5000D154EFF3108272B63B689B00E85882F3B2
:103A600010880830FEF744FF631C30D04444EFF365
:103A7000108172B6D022120613689B00EB5881F3B6
:103A800010889C60A04514D81A4B1868EFF3108674
:103A900072B613689B00E95886F310880831FEF768
:103AA0000FFF154B1A68944200D21C6080BCB846C8
:103AB000F0BD124B1868EFF3108472B613689B00C8
:103AC000E95884F310880831FEF7FAFEEEE7002E7D
:103AD000CCD0EFF3108272B63B689B00E95882F3BA
:103AE000108807480831FEF7DFFEDFE77406002084
:103AF0001C0A022080060020C0090220880600203F
:103B0000F4090220F8B5C368DD682C001C342000DD
:103B1000FEF7EEFE454B1B68002B2AD1143C20001B
:103B2000FEF7E6FE424A2B6B11688B4226D89800BE
:103B3000C018404B80002100C018FEF7B5FE3E4C77
:103B40002A6B23683D4E1F6B2368013AD96B2368AB
:103B50009B6B012B14D96168606863689B6B012BB8
:103B600025D9D0231B061B689B00F058431E9841A3
:103B7000F8BD21003248FEF797FEE0E71360D6E774
:103B800030680028E7D17F1ABA42E4DB6B68DB07B4
:103B9000E1D5636861689C46636800229B6B012BDA
:103BA0001BD86346CA6B1B6B94463A0004E00B6B50
:103BB000C16B01208C4640427168002909D16146E1
:103BC0005B1A934205DC6B689B0702D5012001223A
:103BD00003E00128C5D800200022EFF30583DBB203
:103BE000002B10D0D02109060B68934219D0850014
:103BF0006259926B0232B7D0FEF7DCFB02226359A6
:103C000052429A63ADE7850063599B6B0233A8D09B
:103C1000D0231B0619689142EED1012272511B6814
:103C2000A2E70123800033500B689DE7480902207A
:103C3000500902209006002074060020280A022065
:103C4000D4090220034B1B680360034B1B684360CD
:103C50007047C046C40902201C0A0220F0B5D646AF
:103C60004F46464604008A46C0B5EFF3108372B64D
:103C7000904F3B68002B5BD18F4D90490B689C4661
:103C800063689846EFF3108972B6D0221206136863
:103C90009B00E85889F310887D23C05C002837D04A
:103CA000EFF3108172B612689200AA5881F310885F
:103CB0000021D15401243B68002B23D0EFF3108165
:103CC00072B6D022120613689B00EB5881F310885D
:103CD0001B6D002B16D0EFF3108072B613689B009B
:103CE000E95880F310880B6D013B0B65EFF31081F1
:103CF00072B613689A00AA5881F31088126D002AD0
:103D000000D16EE02000E0BCBA46B146A846F0BD46
:103D100053461B685A1C62D0694A2668106886425E
:103D20004FD0606860454CD8002352461360C1E70D
:103D3000EFF3108172B6D0231B061B685E4D9A000C
:103D4000AA5881F31088126D002A13D1EFF305826F
:103D5000D2B2002A00D180E05A495B4A5B4806682B
:103D6000002E00D18DE0BFF35F8F01201070CA5C80
:103D70000243CA54EFF3108072B6D02109060B68D3
:103D80009B00EA5880F31088136D01331365504B84
:103D90001B68002B00D070E7EFF3108272B60B683F
:103DA0009B00EB5882F310881B6D012B00D064E759
:103DB000EFF30583DBB2002B00D05EE7FFF7BEF91F
:103DC0005BE760464646801B8342ADD960461B1ABE
:103DD000504643440360136823600B68636000240B
:103DE00069E7394A11780139C9B21170002908D13F
:103DF0000120344DE95C8143E954BFF35F8F334BBD
:103E00001860EFF30583DBB2002B00D07AE7D023F4
:103E10001B0619685378013BDBB25370002B09D1A4
:103E20000220284A535C83435354BFF35F8F01221F
:103E3000284B1A60FEF7A6FAEFF3108172B6D02372
:103E40001B061A68244B9200D35881F31088002B6C
:103E500000D157E7FEF78AFA54E71E4A1168002995
:103E60001BD01849BFF35F8F0226B4460120664677
:103E7000154A5070C85C3043C854D0231B061B68D9
:103E80006CE7CE5CF60704D40668002E00D06AE723
:103E9000FAE71378013313706CE70A49C85C8007AE
:103EA00003D410680028DDD1FBE7074A50780130C1
:103EB000507053E7E8090220740600201C0A022013
:103EC000C40902203009022034090220380100D040
:103ED000480902203C0100D0280A0220D0230121F9
:103EE0001B061A68014B9200D1507047280A022025
:103EF000EFF3108172B6D0231B061A68024B9200B2
:103F0000D05881F3108870477406002070B5724C49
:103F100001202368002B00D170BDEFF3108372B62F
:103F20002368002B45D0EFF3108072B6D0231B0618
:103F30001B686A4A9900515880F31088096D00295E
:103F400013D1EFF30581C9B2002900D198E064488C
:103F50006449654D2E68002E00D1A3E0BFF35F8F4A
:103F600001250D70C15C2943C154EFF3108572B671
:103F7000D020000603689B00D15885F310880B6D94
:103F80005A4D01330B652B68002B13D1EFF31081D1
:103F900072B603689B00D35881F310881B6D012B08
:103FA00008D1EFF30583DBB2002B03D1FFF7C6F88E
:103FB00000E04E4D2D682368002B03D16B425D411C
:103FC0006800A9E7EFF3108072B6D02109060B68EC
:103FD000424A9B009B5880F310881B6D002BEDD04C
:103FE000EFF3108472B60B689B00985884F3108826
:103FF000036D013B0365EFF3108072B60B68990007
:104000008A5880F31088126D002AD7D135490A7872
:10401000013AD2B20A70002A08D10120304CE25C89
:104020008243E254BFF35F8F2F4B1860EFF3058399
:10403000DBB2002BC2D1D0231B061A684B78013BA0
:10404000DBB24B70002B09D1022025498B5C8343E6
:104050008B54BFF35F8F0122254B1A60FEF792F954
:10406000EFF3108172B6D0231B061A68214B920021
:10407000D35881F31088002BA0D0FEF777F99DE785
:104080001B490868002819D01548BFF35F8F012528
:10409000022614494D70C55C3543C554D0231B0618
:1040A0001B6856E7C65CF60704D42E68002E00D0C5
:1040B00054E7FAE70B7801330B7056E70848C55C04
:1040C000AD0703D40D68002DDFD1FBE705494D781E
:1040D00001354D703DE7C046E80902207406002016
:1040E0003009022034090220380100D0480902209A
:1040F0003C0100D0280A022070B5041E08D0036ECF
:10410000016BC26D013B0366914201D0002B01D0CF
:10411000002070BD050008352800FEF7E9FB2022CD
:10412000E36DD21AE261084A236311688B4200D919
:1041300013609800C018054B8000C0182900FEF7D6
:10414000B3FB0120E5E7C04650090220900600209D
:1041500010B5EFF3108172B6D0231B061B68074A17
:104160009B009A5881F31088126D002A03D0012118
:10417000034A995010BDFEF7F9F8FBE774060020DA
:10418000280A022070B5EFF3108372B6394B1B6812
:10419000002B3BD0EFF3108072B6D0231B061B68B8
:1041A000354A9900515880F31088096D002911D1C2
:1041B000EFF30581C9B2002931D030483049314C84
:1041C0002568002D3DD0BFF35F8F01240C70C15CCA
:1041D0002143C154EFF3108C72B6D020000603685F
:1041E0009B00D1588CF310880B6D01330B65264B67
:1041F0001B68002B0AD1EFF3108172B603689B0095
:10420000D35881F310881B6D012B00D070BDEFF3E4
:104210000583DBB2002BF9D1FEF790FFF6E71B49CF
:104220000868002818D01548BFF35F8F01240225C5
:1042300013494C70C45C2C43C454D0231B061B6828
:10424000BDE7C55CED0703D42568002DBBD1FBE7B6
:104250000B7801330B70BDE70848C45CA40703D496
:104260000C68002CE0D1FBE705494C7801344C7018
:10427000A5E7C046E80902207406002030090220A4
:1042800034090220380100D0480902203C0100D046
:10429000314B10B51B68002B23D0EFF3108072B6A2
:1042A000D02109060B682D4A9B009B5880F310888B
:1042B0001B6D002B15D0EFF3108C72B60B689B00B2
:1042C00098588CF31088036D013B0365EFF3108061
:1042D00072B60B6899008A5880F31088126D002A14
:1042E00000D010BD1E490A78013AD2B20A70002AE5
:1042F00008D101201B4CE25C8243E254BFF35F8F84
:10430000194B1860EFF30583DBB2002BE9D1D02302
:104310001B061A684B78013BDBB24B70002B09D1AE
:10432000022010498B5C83438B54BFF35F8F0122C3
:104330000E4B1A60FEF726F8EFF3108172B6D02309
:104340001B061A680A4B9200D35881F31088002B81
:10435000C7D0FEF70BF8C4E7E80902207406002076
:104360003409022030090220380100D03C0100D07D
:10437000280A0220F0B5DE4657464E464546E0B5CF
:1043800085B0FDF7F3FF524BD0279A46514B524E62
:104390009846524B524C9946524B3F060193524B12
:1043A0000293524B0393524B9B462368002B00D140
:1043B0007EE0FFF7E7FE2368002B16D05346DB684C
:1043C000DD68AB6B013300D07AE028000830FEF7DF
:1043D0008FFA3368686B013B33602368013B2360CD
:1043E00000F082FF280000F07FFF43461B68002B8F
:1043F000DBD0EFF3108272B649463B689B00CB5886
:1044000082F310881B6D002BCFD0EFF3108172B6B2
:104410004A463B689B00D25881F31088136D013BDC
:104420001365EFF3108172B648463B689A008258D4
:1044300081F31088126D002AB7D101990A78013AE8
:10444000D2B20A70002A08D101200299CA5C8243C4
:10445000CA54BFF35F8F274B1860EFF30583DBB2BD
:10446000002BA2D101993A684B78013BDBB24B702B
:10447000002B09D102210298835C8B438354BFF344
:104480005F8F01221C4B1A60FDF77CFFEFF3108257
:1044900072B63B6803999B00CB5882F31088002BBF
:1044A00000D182E7FDF762FF2368002B00D080E790
:1044B0005B461B68022B00D877E7FDF757FFF3E751
:1044C000FFF7E6FE5B461B68022B00D86DE7F4E7BA
:1044D000080A0220E8090220400902207406002090
:1044E000440902203409022030090220280A02204F
:1044F00090060020380100D03C0100D0F0B54F46B6
:104500004646D646C0B59600070030000D009946D5
:1045100000F028FE8046002800D1CEE0802000F088
:1045200021FE041E00D1C5E0434632004363A521AD
:104530004046FDF755FD0722636B043E9B199343EC
:104540009846002D00D1DBE02B783932A354002BA4
:1045500043D06B780132A354002B3ED0AB780132AC
:10456000A354002B39D0EB780132A354002B34D064
:104570002B790132A354002B2FD06B790132A35435
:10458000002B2AD0AB790132A354002B25D0EB7934
:104590000132A354002B20D02B7A0132A354002BDC
:1045A0001BD06B7A0132A354002B16D0AB7A0132A8
:1045B000A354002B11D0EB7A0132A354002B0CD062
:1045C0002B7B0132A354002B07D06B7B0132A35409
:1045D000002B02D04E23AA7BE2544F230022E25448
:1045E000089D1F2D00D984E026000023083623668D
:1045F00030002563E5659A46FEF752F920001C302D
:10460000FEF74EF920235B1BE36120005346142282
:10461000236500216461A4626430FDF7E1FC2000A1
:10462000042200217830FDF7DBFC230052467C3366
:1046300001251A707D236D42E25439004A464046F6
:104640006560FDF783FE424B2060A5639F425AD010
:10465000404BFF1A7B425F410A9BE763002B00D06F
:104660001C60099B6360FFF78DFD3B4A13680133B3
:1046700013603A4B98461B689A46002B24D0384F5B
:10468000384A1368013313606365374B226B19682E
:104690008A4200D91A6093009B189B00F8183100D9
:1046A000FEF702F943461B68002B24D1FFF7F0FD0B
:1046B000012004E0404600F017FE01204042E0BC2B
:1046C000BA46B146A846F0BD1368254F012B1CD051
:1046D000E36B002BD4D0254A1368002B04D0536819
:1046E000002BCDD101339A465346A3639B00D4508F
:1046F000C6E71F2578E700212000FEF761FED5E719
:104700004023E5546CE70127A6E7A0239B009946C8
:104710003D00B94428001435FEF7B6F8A945F9D193
:10472000134B99461800FEF7AFF8124D2800FEF71C
:10473000ABF81148FEF7A8F81048FEF7A5F81048A6
:10474000FEF7A2F84A460F4B1A600F4B1D60BFE7F9
:10475000754300104530001040090220E80902208E
:10476000900600204C090220500902207406002007
:104770008009022094090220D4090220080A02209C
:10478000F4090220800600208806002010B584B0BD
:10479000079C0294012464420194069C0094FFF754
:1047A000ADFE04B010BDC046F0B589B000F0E6FB28
:1047B00001231D4F1D4E04AC1D4A002504921A0012
:1047C0002F3222716571012B12D001268022194BE4
:1047D000764202932100002317480196009552006B
:1047E000FFF78CFE012812D0144B1B6809B0F0BDF6
:1047F0008022023B0193210000233800029600959D
:104800005200FFF77BFE02230028D5D1ECE7EFF33F
:10481000108372B60A4B1E600A4B18600A4B1D606B
:10482000FDF744FEE0E7C04675430010B0090220E2
:1048300049444C45B4090220453000105402002080
:10484000C0090220E80902201C0A0220F0B5DE4659
:1048500057464E464546E0B583B0082200216846DB
:10486000FDF7BEFBFFF78EFC734B1F68002F5CD17A
:10487000724B1E6801361E60002E65D0704B9B4641
:104880005B461B68B34200D877E06E4B99466E4D8D
:104890002B681A6B93009B184A469B00D258696894
:1048A0000123086B93429241810009184846890010
:1048B000415852428B429B4164495B428846096899
:1048C000002900D00122009242465268002A00D0FE
:1048D00001230193D0231B061B686C4699460026D2
:1048E0002368002B1CD04F4500D196E0EFF30583E1
:1048F000DBB2002B00D178E0D0231B061B689F425F
:1049000000D193E0BB009A46EB589B6B023307D073
:104910003800FDF74FFD53460222EB5852429A638E
:104920000434002F06D10127DAE70026484A13682D
:1049300001331360FFF7ACFC300003B0F0BCBB46A2
:10494000B246A946A046F0BD424B434A19681068DA
:104950001860116041490A6801320A601A681268D9
:10496000002A53D1364B9B4601235A465B421360C3
:104970005B461B68B34200D987E7364B98461B68F5
:104980001B68002B4BD02F4B9946354B9A4622E0A3
:10499000250008352800FDF7ABFFE36A002B03D0A4
:1049A00020001C30FDF7A4FF5246236B126893428F
:1049B00001D9524613609800C0188000290048446D
:1049C000FDF772FF01212000FEF7FAFC43461B6849
:1049D0001B68002B25D043461B68DB68DC68A36896
:1049E0009E42D5D25A46136051E7BB009A46EB5817
:1049F0009B6B023394D0D0231B061B689F4200D0D0
:104A000086E7012342465146535089E71B680C4A0A
:104A1000DB6893461B68136032E7012680E7094B89
:104A2000994601235A465B42136030E70122414612
:104A3000BB00CA5074E7C046480902201C0A022085
:104A4000C00902209006002074060020280A0220D7
:104A5000D00902208006002088060020C409022018
:104A600050090220F8B5CE46474680B5FFF78AFBCD
:104A7000D02109060B68354A99461368013B13603B
:104A8000086833494B78013BDBB24B70002B09D1EE
:104A9000022430490B5CA3430B54BFF35F8F012109
:104AA0002D4B196013680024002B42D12B4B1B683F
:104AB000002B3ED02A4D2B68002B24D0294B2A4EA8
:104AC0009846EB68DF6838003C001C300834FDF77E
:104AD0000FFF2000FDF70CFF3B6B3268934200D9BB
:104AE00033609800C018800021004044FDF7DCFED0
:104AF0002B68002BE5D11D4B1A681268002A1FD1C4
:104B00001B4B013A1A601B4B1B4D98461C684B46C9
:104B10009F00002C0AD00126FFF798FE002800D045
:104B2000EE51013C002CF7D143461C60EC59631E4A
:104B30009C41FFF7ADFB2000C0BCB946B046F8BDB4
:104B40001B68DB681A680A4B1A60DCE74809022018
:104B500034090220300902203C0100D04009022023
:104B6000D40902209006002050090220800600206F
:104B7000C0090220D0090220280A0220044B10B5E7
:104B80001868002800D110BDFFF76CFFFBE7C04696
:104B9000E809022070B5041E0AD0174D2B68002BBF
:104BA0001DD100212000FEF759FA2B68002B11D1EE
:104BB000EFF3108172B6D0231B061B680F4A9B00CF
:104BC0009A5881F31088126D002A12D001210C4AE4
:104BD000995070BDFFF746FF0028E9D0F9E7FEF7CE
:104BE00077FB00212000FEF739FA2B68002BDFD07D
:104BF000F0E7FDF7BBFBECE7E809022074060020B4
:104C0000280A022070B58023C4681B0625000B43C8
:104C100003600835FDF76CFE2800FDF769FE0B4ABE
:104C2000236B11688B4200D913609800C018084BA1
:104C30008000C0182900FDF737FEFFF7A3FA002116
:104C40002000FEF7BDFBFFF723FB70BD50090220DB
:104C500090060020EFF3108072B6D0221206116881
:104C60000D4B8900C95880F31088C869EFF3108C88
:104C700072B611688900C9588CF31088096BEFF37C
:104C8000108C72B612689200D2588CF310882023D0
:104C90005B1AD3617047C04674060020F0B54746E2
:104CA000CE46282380B5984604271E4E85B00EE0D8
:104CB000DB68DC681A68251D28009146FDF718FEA0
:104CC000236A200098474346E35C1F420CD13368B7
:104CD0001A68002AECD1144A11681360316005B0DB
:104CE000C0BCB946B046F0BDA3694B44994511D349
:104CF0000E4D2B68002BEAD0002300934B46029404
:104D00000193FFF703F90023002269462868FDF7A5
:104D100031FFDCE72900306863602461FDF7D0FDD6
:104D2000D5E7C0467C0600208C060020200A022021
:104D3000F0B54E46DE46454657468B4BE0B59946A4
:104D40008A4B8BB09B468A4B8A4E00932823984609
:104D5000894C4B461B681F68002F00D18FE0DB6831
:104D60001F68FEF79DFBFEF71BFC336805008342BE
:104D700000D99EE03060874200D8ADE00022206874
:104D8000791BFEF73BF9FFF7F9FE002800D18DE013
:104D90000022206802A9FEF76FF80028D9D0029BF4
:104DA000002B64DB049D6B69002B02D0281DFDF7EE
:104DB0009FFDFEF7F5FB3368070098427FD3029B07
:104DC0003760092BE4D8009A9B00D3589F4643468E
:104DD0000122EB5C13434246AB54A969039B2D614E
:104DE0005A186A60BA426DD8FB1A994229D82B6AC0
:104DF0002800984743460422EB5C1A42C8D0236837
:104E0000002BC5D00021AA69039B06919B1807932C
:104E10000895FFF77BF800230022206806A9FDF71C
:104E2000A9FEB5E743460122EB5C13434246AB546F
:104E3000039B2D61DA19AB616A60BA4246D8002B38
:104E4000A6D05B46291D1868FDF73AFDA0E743464A
:104E50000122EB5C93434246AB5499E74346EB5C3B
:104E60009A0755D5012293434246AB5490E7039BE2
:104E7000059904989847029B002B89DB92E7FEF77F
:104E80000FFBFEF78DFB33680500834211D85B46AC
:104E90001B6820681A68791B53425A413560FEF737
:104EA000ADF8FFF76BFE002800D071E7FFF750F96F
:104EB0006EE7FFF7F3FE3560FFF760FE68E7FFF788
:104EC000EDFE7CE7BB4201D9934290D94B46291DA8
:104ED0001868FDF7F5FC5BE7FFF750FE4B461B68D3
:104EE000DB68DB689A46043318000193FDF700FD88
:104EF000424653469B5C04221A420DD10122414690
:104F0000934352465354534650461B6A98473FE7D3
:104F1000280000F0E9F93BE7534651469A690961D8
:104F2000BB184B60AB4205D94B4601991868FDF799
:104F3000C7FCE8E7ED1BAA420FD82368002BE2D09C
:104F40000023089106930797FEF7E0FF0023002255
:104F5000206806A9FDF70EFED5E75B4601991868A3
:104F6000FDF7AEFCCFE7C0467C0600208C06002093
:104F70000C550010B8090220200A022070B582B03A
:104F8000FFF700F9174C2368002B12D0FFF780F9C8
:104F900023680020002B0AD0134B802201931F238B
:104FA0001249009312480023D200FFF7EFFB02B032
:104FB00070BD104E3000FDF767FC0F4D2800FDF767
:104FC00063FC0E4B00221E600D4B10210A201D6059
:104FD000FDF79AFD20600028D8D00A49FDF7DEFFD2
:104FE000D4E7C046200A0220240A02203C550010C3
:104FF000314D001054090220680902207C0600206F
:105000008C0600203455001010B514001A0002233D
:1050100084B05B420093054B019002911868694689
:1050200000230394FDF794FE04B010BD200A022073
:10503000F8B50D00EFF3108772B60C4B10309B687B
:1050400084001E59B14204D0094B9E420AD2FCF79B
:1050500077FC064B9B681D51BFF35F8F87F3108869
:105060003000F8BD034B9E42F3D3F0E700ED00E0C3
:10507000C0010010CC01001003BDC04610B50400F3
:10508000FBF79EFBA04710BDF0B5040087B00F20D2
:105090000E001700FBF706FA002105000F20FBF7B2
:1050A000EFF9002300220092019301230293D02301
:1050B00004960594002600240121022003971B0674
:1050C000002C14D01A6D1042FCD05C6540BF1A6DE4
:1050D000114203D120BF1A6D1142FBD09A6DA2423A
:1050E0000AD000266C46B200A458E9E79A6D1A6D02
:1050F0001142FBD140BFE5E70136062EF2D129006F
:105100000F20FBF7BDF907B0F0BDC0460D4B0E4AAE
:1051100010B5934210D30D4A99181A000B4C105138
:10512000FF20C00013500A4B0A4813500A4B0B488B
:105130009A68FFF7A9FF10BD01235B421A000849D6
:10514000ECE7C0460008042000000420F40700003B
:105150007D500010FC07000000ED00E079500010C9
:10516000F3070000F8B5DE46454657464E46E0B523
:105170000400FEF795F9554A1568002D4BD0544BA5
:105180001E6826423CD1631E0A3339D8200007230B
:10519000083003422ED14F4B99461B6898468342F4
:1051A0002ED34D4B9A461B68544604E01A68002AD9
:1051B00004D01C00130059688142F7D3AB421FD0C2
:1051C0001F001A6808372260BB460A1A102A4AD8FC
:1051D00042464846521A026040480468A24200D241
:1051E000026000221A603E4A0E435E60136801337B
:1051F000136007E002009A4313000833834228D863
:1052000000239B46FFF7BAFC5846F0BCBB46B246AB
:10521000A946A046F8BD0721324B19421BD1802177
:1052200089025D18190000202B4E083D7060316026
:105230000726B54380261560284AEB1A1360254AD5
:105240006860286013604B60214B36060D601E605D
:1052500097E718009FE78025D81DAD025D19030070
:105260008B431900DFE719184A608C465246586094
:10527000140012689445FBD861686718BC4518D0C3
:10528000614649688A46E244524508D061460A6050
:10529000010064459CD06246226099E7A446AA4278
:1052A00010D0506812684118604641605968026029
:1052B000EFE7604640680918601861608242EDD0EF
:1052C000596885E761460A605968E2E7840600206C
:1052D0007C090220AC090220EC090220BC09022052
:1052E000C80902203009002070B5002809D01E4AE4
:1052F00008384368126804001A4202D00168002985
:1053000000D070BD934343600500FEF7C9F8174A0B
:10531000616813685B181360154B1A001B689C4288
:10532000FBD850681618B4420DD06018834210D0D4
:105330002360AA4200D015600E4A1368013313603F
:10534000FFF71CFCDDE70918501851608342F3D1C8
:10535000150009480068834203D05868411818684E
:1053600069602860E5E7C0467C090220AC0902209C
:10537000EC090220CC0902208406002010B5830726
:105380000AD00300032102E001330B4205D01A7852
:10539000002AF9D1181A10BD030019680C4A0D4CE7
:1053A0008A188A4322420FD15968094A04338A185D
:1053B0008A43224208D15968054A04338A188A432D
:1053C0002242F1D000E001331A78002AFBD1E1E754
:1053D000FFFEFEFE80808080F8B5C0460000000021
:1053E00001B40248844601BC604700BF610100204F
:1053F00001B40248844601BC604700BF810100201F
:1054000001B40248844601BC604700BF810100200E
:1054100001B40248844601BC604700BFC1000020BF
:10542000426C696E6B205461736B00005370696E3F
:105430006C6F636B20256420697320616C726561F9
:10544000647920636C61696D656400004861726411
:105450007761726520616C61726D20256420616CDA
:10546000726561647920636C61696D656400000038
:105470000A2A2A2A2050414E4943202A2A2A0A0071
:105480000A0000006E6F7420737570706F7274651F
:105490006400000048617264206173736572740077
:1054A00052656C6561736500626F6F74325F77324D
:1054B0003571303830000000312E352E31000000BB
:1054C0007069636F00000000626C696E6B457874F0
:1054D00065726E616C0000004A756E2032362032B3
:1054E0003032330006005250D3F07542A054001001
:1054F00006005250E182887FA854001006005250E6
:10550000BBFF3CB6C05400100D0A0000CE4D001089
:10551000CE4D0010CE4D00104E4E0010244E001007
:105520005C4E0010CE4D0010CE4D00104E4E0010BF
:10553000244E0010546D725100000000546D722012
:04554000537663003B
:10554400E4540010F054001088020010FC540010C1
:0C55540094020010A0020010AC02001035
:10556000F0B5C646160000B504001F000268EFF350
:10557000108872B61368002BFCD0BFF35F8F65688C
:105580006B1C0ED02368BFF35F8F00221A6088F374
:10559000108800F059F8A8420FD1002080BCB8460E
:1055A000F0BD00F051F823686060BFF35F8F002208
:1055B0001A6088F310880120F0E700F045F8804673
:1055C00006E032003B00200000F036F80028E4D16D
:1055D0002268EFF3108172B61368002BFCD0BFF382
:1055E0005F8F65680135ECD1434663602368BFF384
:1055F0005F8F00221A6081F310880120CEE7C04639
:1056000010B50268EFF3108172B61368002BFCD05E
:10561000BFF35F8F01235B42436000F005F810BDCC
:105620007047C0460000000001B40248844601BC37
:10563000604700BF0525001001B40248844601BC44
:10564000604700BF8925001001B40248844601BCB0
:10565000604700BFD52400101000000000000000CB
:105660000000010000000000000000000000020037
:105670000000000000000000000003000000000027
:10568000000000000000FF000000000001B54868B5
:1056900001318E460047704609380149884701BDEF
:1056A0000D0700101C02002000000000A8020020CE
:1056B000180600200000000000000000280600205E
:1056C00000000000000000001000000000000000CA
:1056D000503300004C3300005433000052330000BC
:1056E0004D5300004D43000053340000433400008C
:1056F000FF0000001F00000000000000000000008C
:105700000000000000000000D11F00108D190010E3
:105710007D1E0010411F001031030010752600107F
:04000005100001E9FD
:00000001FF
